{
  "contractName": "Netflix",
  "abi": [
    {
      "inputs": [],
      "stateMutability": "payable",
      "type": "constructor",
      "payable": true
    },
    {
      "inputs": [],
      "name": "charge",
      "outputs": [],
      "stateMutability": "payable",
      "type": "function",
      "payable": true
    },
    {
      "inputs": [
        {
          "internalType": "address payable",
          "name": "receiverAddr",
          "type": "address"
        },
        {
          "internalType": "uint256",
          "name": "receiverAmnt",
          "type": "uint256"
        }
      ],
      "name": "withdraw",
      "outputs": [],
      "stateMutability": "payable",
      "type": "function",
      "payable": true
    }
  ],
  "bytecode": "0x6080604052336000806101000a81548173ffffffffffffffffffffffffffffffffffffffff021916908373ffffffffffffffffffffffffffffffffffffffff1602179055503460018190555061024e8061005a6000396000f3fe6080604052600436106100295760003560e01c8063551619131461002e578063f3fef3a314610038575b600080fd5b610036610054565b005b610052600480360381019061004d9190610153565b61006f565b005b346001600082825461006691906101c2565b92505081905550565b8173ffffffffffffffffffffffffffffffffffffffff166108fc829081150290604051600060405180830381858888f193505050501580156100b5573d6000803e3d6000fd5b505050565b600080fd5b600073ffffffffffffffffffffffffffffffffffffffff82169050919050565b60006100ea826100bf565b9050919050565b6100fa816100df565b811461010557600080fd5b50565b600081359050610117816100f1565b92915050565b6000819050919050565b6101308161011d565b811461013b57600080fd5b50565b60008135905061014d81610127565b92915050565b6000806040838503121561016a576101696100ba565b5b600061017885828601610108565b92505060206101898582860161013e565b9150509250929050565b7f4e487b7100000000000000000000000000000000000000000000000000000000600052601160045260246000fd5b60006101cd8261011d565b91506101d88361011d565b9250827fffffffffffffffffffffffffffffffffffffffffffffffffffffffffffffffff0382111561020d5761020c610193565b5b82820190509291505056fea2646970667358221220c3d6c7314e76d1e4ae639010943c6b10a6c74b7307227951bf24380223bdca6664736f6c634300080d0033",
  "immutableReferences": {},
  "source": "// SPDX-License-Identifier: GPL-3.0\n\npragma solidity >=0.7.0 <0.9.0;\n\ncontract Netflix {\n    \n    address private owner;\n    uint total_value;\n   \n    constructor() payable{\n        owner = msg.sender; \n        \n        total_value = msg.value;  \n    }\n\n    function charge() payable public {\n        total_value += msg.value;\n    }\n\n    function withdraw(address payable receiverAddr, uint receiverAmnt) payable public  {\n        receiverAddr.transfer(receiverAmnt);\n    }\n    \n    \n    \n}",
  "sourcePath": "E:\\bscs\\sem8\\netflix-sub-bln\\src\\smartContract\\contracts\\Netflix.sol",
  "compiler": {
    "name": "solc",
    "version": "0.8.13+commit.abaa5c0e.Emscripten.clang"
  },
  "schemaVersion": "3.4.7",
  "updatedAt": "2022-04-14T13:00:11.514Z",
  "networkType": "ethereum",
  "devdoc": {
    "kind": "dev",
    "methods": {},
    "version": 1
  },
  "userdoc": {
    "kind": "user",
    "methods": {},
    "version": 1
  }
}